:020000040800F2
:100000000040012051360008491100084B1100083A
:100010004D1100084F1100085111000800000000A8
:100020000000000000000000000000005311000864
:100030005511000800000000571100085911000870
:10004000A1360008A1360008A1360008A136000834
:10005000A1360008A1360008A1360008A136000824
:10006000A1360008A1360008A1360008A136000814
:10007000A1360008A1360008A1360008A136000804
:10008000A1360008A1360008A1360008A1360008F4
:10009000A1360008A1360008A1360008A1360008E4
:1000A000A1360008A1360008A1360008A1360008D4
:1000B000A1360008A1360008A1360008A1360008C4
:1000C000A1360008A1360008A1360008A1360008B4
:1000D000A1360008A1360008A1360008A1360008A4
:1000E000A1360008A1360008A1360008A136000894
:1000F000A1360008A1360008A1360008A136000884
:10010000A1360008A1360008A1360008A136000873
:10011000A1360008A1360008A1360008A136000863
:10012000A1360008A1360008A1360008A136000853
:10013000A13600080000000000000000A136000801
:10014000A1360008A1360008A1360008A136000833
:10015000A1360008A1360008A1360008A136000823
:10016000A1360008A1360008A1360008A136000813
:10017000A1360008A13600080000000000000000C1
:04018000A13600089C
:1001880010B5054C237833B9044B13B10448AFF3C9
:1001980000800123237010BD080200200000000029
:1001A8007465000808B5034B1BB103490348AFF356
:1001B800008008BD000000000C02002074650008E3
:1001C800034613F8012B002AFBD1181A013870478F
:1001D80081F0004102E000BF83F0004330B54FEAF0
:1001E80041044FEA430594EA050F08BF90EA020F5D
:1001F8001FBF54EA000C55EA020C7FEA645C7FEAF0
:10020800655C00F0E2804FEA5454D4EB5555B8BF12
:100218006D420CDD2C4480EA020281EA030382EA83
:10022800000083EA010180EA020281EA0303362D15
:1002380088BF30BD11F0004F4FEA01314FF4801CE8
:100248004CEA113102D0404261EB410113F0004FFA
:100258004FEA03334CEA133302D0524263EB4303B1
:1002680094EA050F00F0A780A4F10104D5F1200E4F
:100278000DDB02FA0EFC22FA05F2801841F10001AA
:1002880003FA0EF2801843FA05F359410EE0A5F17E
:1002980020050EF1200E012A03FA0EFC28BF4CF0AF
:1002A800020C43FA05F3C01851EBE37101F0004565
:1002B80007D54FF0000EDCF1000C7EEB00006EEB72
:1002C8000101B1F5801F1BD3B1F5001F0CD34908FC
:1002D8005FEA30004FEA3C0C04F101044FEA445253
:1002E80012F5800F80F09A80BCF1004F08BF5FEADA
:1002F800500C50F1000041EB045141EA050130BDBA
:100308005FEA4C0C404141EB0101013C28BFB1F5CB
:10031800801FE9D291F0000F04BF01460020B1FA16
:1003280081F308BF2033A3F10B03B3F120020CDAE9
:100338000C3208DD02F1140CC2F10C0201FA0CF0C7
:1003480021FA02F10CE002F11402D8BFC2F1200C2C
:1003580001FA02F120FA0CFCDCBF41EA0C019040E2
:10036800E41AA2BF01EB0451294330BD6FEA04042B
:100378001F3C1CDA0C340EDC04F11404C4F1200216
:1003880020FA04F001FA02F340EA030021FA04F328
:1003980045EA030130BDC4F10C04C4F1200220FA7F
:1003A80002F001FA04F340EA0300294630BD21FABD
:1003B80004F0294630BD94F0000F83F4801306BF83
:1003C80081F480110134013D4EE77FEA645C18BF77
:1003D8007FEA655C29D094EA050F08BF90EA020F0E
:1003E80005D054EA000C04BF1946104630BD91EA06
:1003F800030F1EBF0021002030BD5FEA545C05D109
:100408004000494128BF41F0004130BD14F5800447
:100418003CBF01F5801130BD01F0004545F0FE41BB
:1004280041F470014FF0000030BD7FEA645C1ABFF0
:10043800194610467FEA655C1CBF0B46024650EA27
:10044800013406BF52EA033591EA030F41F4002153
:1004580030BD00BF90F0000F04BF0021704730B5D9
:100468004FF4806404F132044FF000054FF00001AE
:1004780050E700BF90F0000F04BF0021704730B56F
:100488004FF4806404F1320410F0004548BF404244
:100498004FF000013EE700BF42004FEAE2014FEA99
:1004A80031014FEA02701FBF12F07F4393F07F4F74
:1004B80081F06051704732F07F4208BF704793F077
:1004C8007F4F04BF41F40021704730B54FF460748A
:1004D80001F0004521F000411CE700BF50EA01028D
:1004E80008BF704730B54FF000050AE050EA010236
:1004F80008BF704730B511F0004502D5404261EBA6
:1005080041014FF4806404F132045FEA915C3FF4E6
:10051800D8AE4FF003025FEADC0C18BF03325FEA83
:10052800DC0C18BF033202EBDC02C2F1200300FA34
:1005380003FC20FA02F001FA03FE40EA0E0021FA59
:1005480002F11444BDE600BF70B54FF0FF0C4CF447
:10055800E06C1CEA11541DBF1CEA135594EA0C0FF9
:1005680095EA0C0F00F0DEF82C4481EA030621EA34
:100578004C5123EA4C5350EA013518BF52EA03356F
:1005880041F4801143F4801338D0A0FB02CE4FF021
:100598000005E1FB02E506F00042E0FB03E54FF051
:1005A8000006E1FB03569CF0000F18BF4EF0010E49
:1005B800A4F1FF04B6F5007F64F5407404D25FEA45
:1005C8004E0E6D4146EB060642EAC62141EA5551F8
:1005D8004FEAC52040EA5E504FEACE2EB4F1FD0C3A
:1005E80088BFBCF5E06F1ED8BEF1004F08BF5FEAB8
:1005F800500E50F1000041EB045170BD06F000466A
:1006080046EA010140EA020081EA0301B4EB5C0416
:10061800C2BFD4EB0C0541EA045170BD41F480110E
:100628004FF0000E013C00F3AB8014F1360FDEBF33
:10063800002001F0004170BDC4F10004203C35DA0F
:100648000C341BDC04F11404C4F1200500FA05F392
:1006580020FA04F001FA05F240EA020001F0004233
:1006680021F0004110EBD37021FA04F642EB0601A9
:100678005EEA430E08BF20EAD37070BDC4F10C04D3
:10068800C4F1200500FA04F320FA05F001FA04F297
:1006980040EA020001F0004110EBD37041F1000183
:1006A8005EEA430E08BF20EAD37070BDC4F120058E
:1006B80000FA05F24EEA020E20FA04F301FA05F2F6
:1006C80043EA020321FA04F001F0004121FA04F29E
:1006D80020EA020000EBD3705EEA430E08BF20EA6E
:1006E800D37070BD94F0000F0FD101F000464000A8
:1006F80041EB010111F4801F08BF013CF7D041EA2A
:10070800060195F0000F18BF704703F0004652002D
:1007180043EB030313F4801F08BF013DF7D043EAFE
:100728000603704794EA0C0F0CEA135518BF95EAB4
:100738000C0F0CD050EA410618BF52EA4306D1D13B
:1007480081EA030101F000414FF0000070BD50EA5A
:10075800410606BF1046194652EA430619D094EAE4
:100768000C0F02D150EA013613D195EA0C0F05D1CE
:1007780052EA03361CBF104619460AD181EA030122
:1007880001F0004141F0FE4141F470014FF00000DA
:1007980070BD41F0FE4141F4780170BD70B54FF075
:1007A800FF0C4CF4E06C1CEA11541DBF1CEA1355F5
:1007B80094EA0C0F95EA0C0F00F0A7F8A4EB0504D7
:1007C80081EA030E52EA03354FEA013100F08880CE
:1007D8004FEA03334FF0805545EA131343EA126397
:1007E8004FEA022245EA111545EA10654FEA00264C
:1007F8000EF000419D4208BF964244F1FD0404F505
:10080800407402D25B084FEA3202B61A65EB030560
:100818005B084FEA32024FF480104FF4002CB6EB1D
:10082800020E75EB030E22BFB61A754640EA0C009D
:100838005B084FEA3202B6EB020E75EB030E22BFDD
:10084800B61A754640EA5C005B084FEA3202B6EB1E
:10085800020E75EB030E22BFB61A754640EA9C00DD
:100868005B084FEA3202B6EB020E75EB030E22BFAD
:10087800B61A754640EADC0055EA060E18D04FEA6B
:10088800051545EA16754FEA06164FEAC30343EA0B
:1008980052734FEAC2025FEA1C1CC0D111F4801FD8
:1008A8000BD141EA00014FF000004FF0004CB6E7D1
:1008B80011F4801F04BF01430020B4F1FD0C88BF70
:1008C800BCF5E06F3FF6AFAEB5EB030C04BFB6EB7B
:1008D800020C5FEA500C50F1000041EB045170BD6E
:1008E8000EF0004E4EEA113114EB5C04C2BFD4EB9B
:1008F8000C0541EA045170BD41F480114FF0000E1F
:10090800013C90E645EA060E8DE60CEA135594EA9A
:100918000C0F08BF95EA0C0F3FF43BAF94EA0C0F9D
:100928000AD150EA01347FF434AF95EA0C0F7FF412
:1009380025AF104619462CE795EA0C0F06D152EA66
:1009480003353FF4FDAE1046194622E750EA41064A
:1009580018BF52EA43067FF4C5AE50EA41047FF45B
:100968000DAF52EA43057FF4EBAE12E74FF0FF3CC0
:1009780006E000BF4FF0010C02E000BF4FF0010C91
:100988004DF804CD4FEA410C7FEA6C5C4FEA430C0A
:1009980018BF7FEA6C5C1BD001B050EA410C0CBF59
:1009A80052EA430C91EA030F02BF90EA020F0020BB
:1009B800704710F1000F91EA030F58BF994208BF22
:1009C80090422CBFD8176FEAE37040F001007047DF
:1009D8004FEA410C7FEA6C5C02D150EA013C07D136
:1009E8004FEA430C7FEA6C5CD6D152EA033CD3D081
:1009F8005DF8040B704700BF8446104662468C467B
:100A08001946634600E000BF01B5FFF7B7FF0028AD
:100A180048BF10F1000F01BD4DF808EDFFF7F4FFD6
:100A28000CBF012000205DF808FB00BF4DF808ED61
:100A3800FFF7EAFF34BF012000205DF808FB00BF84
:100A48004DF808EDFFF7E0FF94BF012000205DF8A6
:100A580008FB00BF4DF808EDFFF7CEFF94BF01205B
:100A680000205DF808FB00BF4DF808EDFFF7C4FF54
:100A780034BF012000205DF808FB00BF4FEA410C9D
:100A88007FEA6C5C02D150EA013C0AD14FEA430C80
:100A98007FEA6C5C02D152EA033C02D14FF00000BD
:100AA80070474FF0010070474FEA410212F50012FB
:100AB80015D211D56FF47873B3EB625212D94FEA9D
:100AC800C12343F0004343EA505311F0004F23FA87
:100AD80002F018BF404270474FF00000704750EADC
:100AE800013005D111F0004008BF6FF00040704799
:100AF8004FF00000704700BF53B94AB9002908BF3A
:100B080000281CBF4FF0FF314FF0FF3000F076B9DE
:100B1800ADF1080C6DE904CE00F006F8DDF804E04C
:100B2800DDE9022304B070472DE9F047089E0D4621
:100B380004468846002B4DD18A42944668D9B2FAB9
:100B480082F252B101FA02F3C2F1200120FA01F156
:100B58000CFA02FC41EA030894404FEA1C41B8FB36
:100B6800F1F71FFA8CFE01FB178807FB0EF0230C28
:100B780043EA084398420AD91CEB030307F1FF35FF
:100B880080F01E81984240F21B81023F63441B1A89
:100B9800B3FBF1F001FB103300FB0EFEA4B244EAF4
:100BA8000344A6450AD91CEB040400F1FF3380F086
:100BB8000981A64540F20681644402380021A4EB6D
:100BC8000E0440EA07401EB10023D440C6E90043A2
:100BD800BDE8F0878B4208D9002E00F0EE80002196
:100BE800C6E900050846BDE8F087B3FA83F1002995
:100BF8004AD1AB4202D3824200F2FC80841A65EBF0
:100C0800030301209846002EE2D0C6E90048DFE73A
:100C180002B9FFDEB2FA82F2002A40F09180A1EB1D
:100C28000C0001214FEA1C471FFA8CFEB0FBF7F3BA
:100C380007FB1300250C45EA00450EFB03F0A8420C
:100C480008D91CEB050503F1FF3802D2A84200F2CF
:100C5800CE8043462D1AB5FBF7F007FB10550EFB67
:100C680000FEA4B244EA0544A64508D91CEB0404D6
:100C780000F1FF3502D2A64500F2B6802846A4EB63
:100C88000E0440EA03409EE7C1F120078B4022FA98
:100C980007FC4CEA030C25FA07FA4FEA1C49BAFB91
:100CA800F9F820FA07F309FB18AA8D401FFA8CFE01
:100CB8001D4300FA01F308FB0EF02C0C44EA0A4429
:100CC800A04202FA01F20BD91CEB040408F1FF3A26
:100CD80080F08880A04240F28580A8F10208644430
:100CE800241AB4FBF9F009FB104400FB0EFEADB268
:100CF80045EA0444A64508D91CEB040400F1FF3575
:100D08006CD2A6456AD90238644440EA0840A0FB80
:100D18000295A4EB0E04AC42C846AE4656D353D057
:100D2800002E69D0B3EB080264EB0E0422FA01F33B
:100D380004FA07F71F43CC40C6E90074002147E7CF
:100D48000CFA02FCC2F1200125FA01F34FEA1C4714
:100D580020FA01F195400D43B3FBF7F107FB11337E
:100D68001FFA8CFE280C40EA034001FB0EF3834275
:100D780004FA02F408D91CEB000001F1FF382FD265
:100D880083422DD902396044C01AB0FBF7F307FB40
:100D98001300ADB245EA004503FB0EF0A84208D99E
:100DA8001CEB050503F1FF3816D2A84214D9023B03
:100DB8006544281A43EA014138E73146304607E7D7
:100DC8002F46E4E61846F9E64B45A9D2B9EB0208E6
:100DD80065EB0C0E0138A3E74346EAE7284694E79B
:100DE8004146D1E7D0467BE76444023847E7023BF7
:100DF80065442FE7084606E73146E9E6704700BF35
:100E0800F0B589B0002403940494059406940794DB
:100E18000094214B1A6B42F080021A631A6B02F09D
:100E280080020092009A01941A6B42F001021A6340
:100E38001A6B02F001020192019A02941A6B42F0B5
:100E480002021A631B6B03F002030293029B134F07
:100E5800224648F61011384601F068F8104D22462F
:100E68004FF23A01284601F061F848F6101303934F
:100E7800012604960594069403A9384600F052FF0B
:100E88004FF23A03039304960594069403A928465F
:100E980000F048FF09B0F0BD0038024000000240F1
:100EA8000004024010B51446642392B2024801F0CF
:100EB800DCFC204610BD00BF5803002072B6FEE7D8
:100EC80008B50A480A4B03600A4B43600023836055
:100ED800C3604FF48042026143618361C36103626E
:100EE80000F052FA00B908BDFFF7E8FF240200201D
:100EF80000540040A086010008B50D480D4B036062
:100F08004FF48273436000238360C36003614361CD
:100F18004FF4007282611022C261036243628362ED
:100F28000A23C36201F0B2F800B908BDFFF7C6FF93
:100F3800780200200030014008B50A480A4B0360D7
:100F48004FF4E133436000238360C36003610C22E4
:100F580042618361C36101F059FC00B908BDFFF724
:100F6800ADFF00BFD00200200010014008B50A48BC
:100F78000A4B03604FF4E133436000238360C3608E
:100F880003610C2242618361C36101F03FFC00B937
:100F980008BDFFF793FF00BF58030020004800403A
:100FA80008B50A480A4B03604FF4E1334360002355
:100FB8008360C36003610C2242618361C36101F0F5
:100FC80025FC00B908BDFFF779FF00BF1403002016
:100FD8000044004000B593B03022002106A802F07A
:100FE800A9FB002301930293039304930593012320
:100FF8000693079302230C934FF480020D92082264
:101008000E92F0220F9210930423119306A800F079
:1010180001FB98B90F230193022302930023039342
:101028004FF4A05304934FF480530593032101A870
:1010380000F032FD20B913B05DF804FBFFF73EFF66
:10104800FFF73CFF00B597B000F0A2FAFFF7C2FF28
:10105800FFF7D6FEFFF734FFFFF74EFFFFF76CFFF1
:10106800FFF784FFFFF79CFF2D4C5422211D684693
:1010780002F038FB23684FF480721021294802F0EF
:10108800FFF9294D6C4605F1100CBCE80F000FC4A0
:10109800BCE80F000FC4BCE80F000FC4DCF8003038
:1010A800236095E80F0002F0BDFA012001F0CCFDA5
:1010B800342001F063FD202001F06AFD002001F0DA
:1010C800EFFD032001F0CCFD184BD3E900230120EC
:1010D80001F012FD01F0AAFE01F084FE01F0D0FE3D
:1010E80001F0EAFC01F043FE0028FBD0104C20215F
:1010F800204601F086FD20220E49012001F03CFE29
:1011080021460D4802F07EFF32220021204602F0DF
:1011180011FB4FF41041094800F00EFFE2E700BF51
:101128007802002000000240580300200000002040
:101138009C0300200800002090650008000402407D
:10114800FEE7FEE7FEE7FEE7FEE7704770477047F9
:1011580008B500F037FA08BD82B0002100910B4BAA
:101168005A6C42F480425A645A6C02F480420092EB
:10117800009A01911A6C42F080521A641B6C03F0B9
:1011880080530193019B02B0704700BF00380240B2
:1011980030B589B00023039304930593069307930E
:1011A8000268144B9A4201D009B030BD0025019560
:1011B800114C236B43F002032363236B03F00203F8
:1011C8000193019BC02303931223049303230693E3
:1011D8000423079303A9094800F0A4FD0295236C92
:1011E80043F400132364236C03F400130293029B5B
:1011F800DAE700BF00540040003802400004024013
:1012080000B589B0002303930493059306930793CD
:101218000268154B9A4202D009B05DF804FB002120
:10122800019103F584335A6C42F480525A645A6C23
:1012380002F480520192019A02911A6B42F0010263
:101248001A631B6B03F001030293029BE0230393D1
:1012580002230493032306930523079303A9034852
:1012680000F060FDD8E700BF0030014000000240F8
:1012780000B58DB000230793089309930A930B9345
:1012880003683B4A934208D03A4A934229D03A4AE3
:10129800934249D00DB05DF804FB00210191374B12
:1012A8005A6C42F010025A645A6C02F01002019211
:1012B800019A02911A6B42F001021A631B6B03F048
:1012C80001030293029B4FF4C06307930223089320
:1012D80003230A9307230B9307A9294800F022FD4B
:1012E800D8E700210391254B1A6C42F400321A64A6
:1012F8001A6C02F400320392039A04911A6B42F0BA
:1013080001021A631B6B03F001030493049B0C2373
:1013180007930223089303230A9307230B9307A930
:10132800174800F0FFFCB5E700210591134B1A6C34
:1013380042F480221A641A6C02F480220592059AFB
:1013480006911A6B42F002021A631B6B03F0020348
:101358000693069B4FF440630793022308930323E5
:101368000A9307230B9307A9064800F0DBFC91E7D3
:10137800001001400044004000480040003802408E
:101388000000024000040240002800F0CC8070B544
:10139800044690F83D30002B77D0242384F83D3064
:1013A8002268136823F0010313602268136843F46A
:1013B800004313602268136823F40043136000F0AD
:1013C80027FC62685A4B9A4264D85A4B98428CBFA1
:1013D80000230123002B40F0A8805749A1FB0031CE
:1013E8008B0C25686A6822F03F0242EA91426A60E3
:1013F80021680A6A22F03F0266684D4DAE424FD816
:10140800013313430B622168CA6922F44F4222F068
:10141800FF026668464B9E424CD8431E7600B3FBDB
:10142800F6F3013340F6FC70034278D0C3F30B03A4
:101438001343CB6121680B6823F0C003E269206A7B
:10144800024313430B6021688B6823F4034323F0A2
:10145800FF032269E068024313438B602168CB686D
:1014680023F0FF036269A06902431343CB6022683B
:10147800136843F00103136000202064202384F8DC
:101488003D30206384F83E0070BD80F83C30FFF7A3
:101498007FFE82E7294B98428CBF0023012399E7FE
:1014A8004FF4967505FB03F3254DA5FB03539B09E4
:1014B8000133A6E7A368BBB9451E06EB460CB5FB8E
:1014C800FCF50135C5F30B05B5FA85F56D0945BB86
:1014D800C3B9013806EB4603B0FBF3F30133C3F39A
:1014E8000B0343F40043A3E7451E06EB860C0CEB05
:1014F8008C0CB5FBFCF50135C5F30B05B5FA85F584
:101508006D09E4E7013806EB860303EB8303B0FBC0
:10151800F3F30133C3F30B0343F4404388E7042395
:1015280086E7012384E7012070470120ACE700BF6C
:10153800A08601007F841E0083DE1B43FF083D0058
:10154800D34D621010B504460E4B18784FF47A73D9
:10155800B3FBF0F30C4A1068B0FBF3F000F0CEFBDD
:1015680068B90F2C01D901200AE0002221464FF06A
:10157800FF3000F08BFB054B1C60002000E00120D1
:1015880010BD00BF28000020300000202C000020E3
:1015980008B50B4B1A6842F400721A601A6842F4D4
:1015A80080621A601A6842F480721A60032000F0A0
:1015B8005BFB0F20FFF7C6FFFFF7CEFD002008BD3D
:1015C800003C0240034A1168034B1B780B4413602C
:1015D800704700BFD003002028000020014B186886
:1015E800704700BFD003002030B583B00190FFF7EB
:1015F800F5FF0546019CB4F1FF3F02D0044B1B7870
:101608001C44FFF7EBFF401BA042FAD303B030BDE8
:1016180028000020002800F0BB8170B582B0044685
:10162800036813F0010F2ED0934B9B6803F00C0353
:10163800042B1FD0904B9B6803F00C03082B14D08D
:1016480022798D4B9A706368002B40D0FFF7C6FF54
:101658000546894B1B6813F4003F14D1FFF7BEFF02
:10166800401B6428F5D9032099E1834B5B6813F488
:10167800800FE5D0804B1B6813F4003F03D06368EC
:10168800002B00F08781236813F0020F4AD07A4BB1
:101698009B6813F00C0F2ED0774B9B6803F00C035C
:1016A800082B23D0E368002B64D0744B01221A6006
:1016B800FFF794FF0546704B1B6813F0020F4AD1E1
:1016C800FFF78CFF401B0228F5D9032067E1FFF7DD
:1016D80085FF0546684B1B6813F4003FD3D0FFF71E
:1016E8007DFF401B6428F5D9032058E1624B5B68F5
:1016F80013F4800FD6D1604B1B6813F0020F03D090
:10170800E368012B40F048815B48036823F0F80345
:101718002169F82292FAA2F2B2FA82F201FA02F2EE
:1017280013430360236813F0080F48D063699BB321
:10173800524B0122C3F8802EFFF750FF05464E4B4F
:101748005B6F13F0020F3AD1FFF748FF401B0228E6
:10175800F5D9032023E14848036823F0F8032169F9
:10176800F82292FAA2F2B2FA82F201FA02F21343D2
:101778000360D7E7414B00221A60FFF72FFF0546A9
:101788003D4B1B6813F0020FCCD0FFF727FF401B1F
:101798000228F5D9032002E1384B0022C3F8802E35
:1017A800FFF71CFF0546344B5B6F13F0020F06D0A2
:1017B800FFF714FF401B0228F5D90320EFE0236848
:1017C80013F0040F5FD02C4B1B6C13F0805F2CD1EF
:1017D80000230193284B1A6C42F080521A641B6C48
:1017E80003F080530193019B0125254B1A6842F4AD
:1017F80080721A601B6813F4807F18D0227A1E4BFF
:1018080083F87020A36833B3FFF7E8FE06461A4B47
:101818001B6F13F0020F35D1FFF7E0FE801B41F27A
:1018280088339842F3D90320B9E00025DDE7144A4C
:10183800136843F480731360FFF7D0FE0646104B1D
:101848001B6813F4807FD9D1FFF7C8FE801B0228DC
:10185800F5D90320A3E0FFF7C1FE0646064B1B6F30
:1018680013F0020F0ED0FFF7B9FE801B41F2883348
:101878009842F3D9032092E0003802400000474222
:1018880000700040EDB9A369002B00F087804B4A37
:10189800926802F00C02082A5BD0022B17D0484B42
:1018A80000221A66FFF79AFE0446444B1B6813F0A1
:1018B800007F4CD0FFF792FE001B6428F5D9032067
:1018C8006DE03E4A136C23F080531364DBE73C4B16
:1018D80000221A66FFF782FE0546384B1B6813F094
:1018E800007F06D0FFF77AFE401B6428F5D9032055
:1018F80055E03248426822F0746222F45F3222F4E2
:101908007F7222F00302E369216A0B43616A43EAAA
:101918008113E16A43EA0163A16A4908013943EA8C
:10192800014313434360264B01221A66FFF756FE14
:101938000446224B1B6813F0007F06D1FFF74EFECA
:10194800001B6428F5D9032029E0002027E00020A7
:1019580025E0012B25D0194B5B6803F48001E2696F
:10196800914220D103F03F02216A8A421DD1C3F37C
:101978008812616A8A421AD103F44032A16A8A4203
:1019880017D103F07063E26A934214D1002006E095
:1019980001207047012002E0012000E0002002B091
:1019A80070BD0120FBE70120F9E70120F7E70120DE
:1019B800F5E70120F3E70120F1E700BF0038024016
:1019C8000000474208B5314B9B6803F00C03042B19
:1019D80057D0082B57D12D4B5A6802F03F025B684D
:1019E80013F4800F2AD0294B5968C1F3881C4FEA99
:1019F8004C11B1EB0C006EEB0E0E4FEA8E1343EA5E
:101A080090638101091A63EB0E03DB0043EA51730B
:101A1800C90011EB0C0C43F10003590200234FEAF3
:101A28004C2041EADC51FFF767F8184B5B68C3F3B9
:101A3800014301335B00B0FBF3F025E0134B596819
:101A4800C1F3881C4FEA4C11B1EB0C006EEB0E0E83
:101A58004FEA8E1343EA90638101091A63EB0E0380
:101A6800DB0043EA5173C90011EB0C0C43F100038E
:101A7800990200234FEA8C2041EA9C51FFF73CF879
:101A8800D3E7034800E0034808BD00BF0038024020
:101A980000127A000024F400002800F0A08070B53D
:101AA8000D460446524B1B6803F00F038B4208D2C5
:101AB800CBB24F4A1370136803F00F038B4240F008
:101AC8009080236813F0020F17D013F0040F04D08E
:101AD800484A936843F4E0539360236813F0080F6F
:101AE80004D0444A936843F460439360414A93683E
:101AF80023F0F003A1680B439360236813F0010FF0
:101B080031D06368012B20D0022B25D0394A1268C6
:101B180012F0020F67D037498A6822F00302134394
:101B28008B60FFF75BFD0646324B9B6803F00C03A6
:101B38006268B3EB820F16D0FFF750FD801B41F2AD
:101B480088339842F0D9032048E02A4A126812F4F0
:101B5800003FE0D1012041E0264A126812F0007FE0
:101B6800D9D101203AE0224B1B6803F00F03AB42A6
:101B780007D9EAB21E4B1A701B6803F00F03AB4279
:101B880033D1236813F0040F06D01A4A936823F45C
:101B9800E053E1680B439360236813F0080F07D004
:101BA800144A936823F46043216943EAC1039360AC
:101BB800FFF708FF0F4B9B6803F0F003F02292FA3F
:101BC800A2F2B2FA82F2D3400B4AD35CD8400B4B54
:101BD80018600B4B1868FFF7B5FC002070BD01209A
:101BE80070470120FAE70120F8E70120F6E700BF77
:101BF800003C024000380240986500083000002090
:101C08002C000020014B1868704700BF30000020EE
:101C180008B5FFF7F7FF074B9B6803F4E0534FF451
:101C2800E05292FAA2F2B2FA82F2D340024AD35CAC
:101C3800D84008BD00380240A865000808B5FFF77D
:101C4800E1FF074B9B6803F460434FF4604292FA4C
:101C5800A2F2B2FA82F2D340024AD35CD84008BD5D
:101C680000380240A8650008074AD36823F4E063F7
:101C78001B041B0C000200F4E060034343F0BF6345
:101C880043F40033D360704700ED00E000B5194B12
:101C9800DB68C3F30223C3F1070CBCF1040F28BFB0
:101CA8004FF0040C03F1040EBEF1060F18D9033BE4
:101CB8004FF0FF3E0EFA0CFC21EA0C0199400EFA97
:101CC80003F322EA0303194300280BDB0901C9B215
:101CD80000F1604000F5614080F800135DF804FBF6
:101CE8000023E5E700F00F000901C9B2024B1954BF
:101CF800F4E700BF00ED00E014ED00E00138B0F1BA
:101D0800807F0BD24FF0E0235861054AF02182F81A
:101D180023100020986107221A617047012070473C
:101D280000ED00E070B582B0002365E085685E00D4
:101D38000324B44025EA0405CC68B4402C438460ED
:101D4800446824EA0C0C4C68C4F300149C4044EA30
:101D58000C04446062E0DD08083550F8256003F0A3
:101D680007044FEA840C0F2404FA0CF426EA040E44
:101D78000C6904FA0CF444EA0E0440F8254064E0C7
:101D8800082400E0002404FA0EF42C430CF1020CA1
:101D9800624D45F82C40624C2568D44325EA02067A
:101DA800D1F804C01CF4803F01D042EA05065C4D1E
:101DB8002E606D6804EA0506D1F804C01CF4003FE3
:101DC80001D042EA0506564D6E60AD6804EA050684
:101DD800D1F804C01CF4801F01D042EA0506504D1A
:101DE800AE60ED682C404E6816F4001F01D042EA40
:101DF80005044B4AD46001330A6832FA03F400F050
:101E08008A804FF0010C0CFA03FC1CEA0202F2D0A3
:101E18004C6804F00304013C012C87D94C6804F099
:101E28000304032C0CD0C4685D004FF0030C0CFABB
:101E380005FC24EA0C0C8C68AC4044EA0C04C46031
:101E48004C6804F00304022C85D004684FEA430E62
:101E58004FF0030C0CFA0EFC24EA0C0C4C6804F04E
:101E6800030404FA0EF444EA0C0404604C6814F405
:101E7800403FC0D0002401942A4C656C45F480454D
:101E88006564646C04F480440194019C4FEA930CEB
:101E98000CF10205214C54F8255003F003044FEAD5
:101EA800840E0F2404FA0EF425EA04051E4CA04201
:101EB8003FF468AF04F58064A0421ED004F5806446
:101EC800A0421CD004F58064A0421AD004F58064B6
:101ED800A04218D004F58064A04216D004F58064AE
:101EE800A04214D004F58064A04212D004F58064A6
:101EF800A0423FF445AF092445E7012443E7022403
:101F080041E703243FE704243DE705243BE7062493
:101F180039E7072437E702B070BD00BF0038014039
:101F2800003C014000380240000002400AB18161D3
:101F38007047090481617047436901EA030221EA95
:101F4800030141EA02418161704700002DE9F04731
:101F580082B00546884617461E46FFF73FFB0A9B98
:101F68001B1A03EB0609FFF739FB82462B4B1B684C
:101F7800C3F3CB3309FB03F301932B689C6838EA5E
:101F880004030CBF4FF0010C4FF0000CBC4540D0CF
:101F9800B6F1FF3FF1D0FFF721FBA0EB0A0048455F
:101FA8000AD2B9F1000F07D0019A02B14A46019B43
:101FB800013B01939146E0E72A68536823F0E00368
:101FC80053606B68B3F5827F0BD0AB6AB3F5005FE3
:101FD80014D0012385F85130002385F850300320B0
:101FE80018E0AB68B3F5004F02D0B3F5806FECD1C1
:101FF8002A68136823F040031360E6E72A68136829
:1020080023F4005313602A68136843F400531360E1
:10201800DFE7002002B0BDE8F08700BF30000020F5
:1020280010B582B004460B46009200228021FFF7CB
:102038008DFF08B902B010BD636D43F020036365DE
:102048000320F7E710B582B004460B464168B1F5A6
:10205800827F08D00092002280212046FFF776FF79
:1020680070B902B010BD8168B1F5004F02D0B1F56A
:10207800806FEFD12068016821F040010160E9E735
:10208800636D43F0200363650320EAE700285AD014
:1020980010B50446436A33B94368B3F5827F05D067
:1020A8000023C36102E00023036143610023A362AC
:1020B80094F85130002B40D0022384F85130226824
:1020C800136823F040031360636803F48273A26803
:1020D80002F404421343E26802F4006213432269E3
:1020E80002F002021343626902F001021343A2697B
:1020F80002F400721343E26902F038021343226AC1
:1021080002F080021343A26A02F4005221681343CA
:102118000B60638B03F00403626A02F0100221680B
:1021280013434B602268D36923F40063D361002012
:102138006065012384F8513010BD84F85030204682
:10214800FFF75EF8B8E7012070472DE9F04383B048
:102158001D4690F85030012B00F0D1800446884687
:102168009146012380F85030FFF738FA074694F873
:102178005160F6B2012E40F0AF80B8F1000F00F0C8
:10218800AC80B9F1000F00F0A880032384F8513027
:1021980000236365C4F83080A4F83490A4F836901E
:1021A800A363A387E38763642364A368B3F5004F3D
:1021B8001ED023681A6812F0400F03D11A6842F043
:1021C80040021A60E368B3F5006F1CD0636813B16E
:1021D800B9F1010F52D1226B236812781A73236B5D
:1021E80001332363E38E9BB2013B9BB2E38645E058
:1021F8002268136823F0400313602268136843F4CD
:1022080080431360D5E7636813B1B9F1010F16D1A4
:10221800226B23681288DA60236B02332363E38E10
:102228009BB2013B9BB2E38609E0FFF7D7F9C01BDD
:10223800A84202D3B5F1FF3F59D1002D59D0E38E02
:102248009BB2002B33D023689A6812F0020FECD0AF
:10225800226B1288DA60236B02332363E38E9BB20E
:10226800013B9BB2E386EAE7FFF7B8F9C01BA84237
:1022780002D3B5F1FF3F3ED1002D3ED0E38E9BB295
:10228800ABB123689A6812F0020FEDD0226B127876
:102298001A73236B01332363B4F836C01FFA8CFC1E
:1022A8000CF1FF3C1FFA8CFCA4F836C0E6E73A466E
:1022B80029462046FFF7B4FE08B120236365A368CA
:1022C80033B901932368DA6801929B680193019BF3
:1022D800636D13B9002600E00226012384F851300B
:1022E800002384F85030304603B0BDE8F08303265D
:1022F800F3E70326F1E70326EFE70326EDE70226D7
:10230800F1E72DE9F04383B01F460A9D90F850305D
:10231800012B00F01081044688469146012380F87D
:102328005030FFF75BF9064694F85130DBB262682B
:10233800012B0AD0B2F5827F40F0E380A268002A20
:1023480040F0E980042B40F0E880B8F1000F00F07D
:10235800E680B9F1000F00F0E480002F00F0E38080
:1023680094F85130DBB2042B02D0052384F85130A5
:1023780000236365C4F83890E787A787C4F83080DE
:10238800E786A7862364636423681A6812F0400FFF
:1023980003D11A6842F040021A60E368B3F5006F8F
:1023A80011D063680BB1012F0BD1226B236812780F
:1023B8001A73236B01332363E38E9BB2013B9BB2F9
:1023C800E38601276BE063680BB1012F0BD1226B09
:1023D80023681288DA60236B02332363E38E9BB28F
:1023E800013B9BB2E38601271CE023689A6812F040
:1023F800010F0ED0E28F92B25AB1DA68A36B1A803D
:10240800A36B0233A363E38F9BB2013B9BB2E387C9
:102418000127FFF7E3F8801BA84203D3B5F1FF3F7C
:1024280040F08380E38E9BB21BB9E38F9BB2002BF5
:1024380053D023689A6812F0020FD6D0E28E92B277
:10244800002AD2D0002FD0D0226B1288DA60236BFA
:1024580002332363E38E9BB2013B9BB2E3860027E2
:10246800C3E723689A6812F0010F0ED0E28F92B288
:102478005AB1DA68A36B1A70A36B0133A363E38FB5
:102488009BB2013B9BB2E3870127FFF7A7F8831BA9
:10249800AB4202D3B5F1FF3F49D1002D49D0E38EBD
:1024A8009BB213B9E38F9BB2BBB123689A6812F051
:1024B800020FD6D0E28E92B2002AD2D0002FD0D00E
:1024C800226B12781A73236B01332363E38E9BB25A
:1024D800013B9BB2E3860027C3E7324629462046E4
:1024E800FFF79EFD48B9A36863B901932368DA68CA
:1024F80001929B680193019B04E0202363650120FE
:1025080000E00220012384F85130002384F8503081
:1025180003B0BDE8F0830220F4E70220F2E70120CF
:10252800F0E70120EEE70120ECE70320EAE70320CB
:10253800E8E70320E6E70220EAE72DE9F04383B065
:102548000446884691461D464068B0F5827F38D0DB
:1025580094F85030012B00F0AE80012384F85030FD
:10256800FFF73CF8074694F85160F6B2012E40F0A8
:102578008F80B8F1000F00F08C80B9F1000F00F0E7
:102588008880042384F8513000236365C4F83880B8
:10259800A4F83C90A4F83E902363A386E3862364C2
:1025A8006364A368B3F5004F19D023681A6812F062
:1025B800400F03D11A6842F040021A60E3681BB367
:1025C80041E0A368002BC3D1042384F8513000955F
:1025D80013460A462046FFF794FE06465FE0226847
:1025E800136823F0400313602268136823F48043C0
:1025F8001360DAE7FEF7F2FFC01BA84202D3B5F179
:10260800FF3F50D1002D50D0E38F9BB2002B33D029
:1026180023689A6812F0010FECD0A26B1B7B137031
:10262800A36B0133A363E38F9BB2013B9BB2E387A8
:10263800EAE7FEF7D3FFC01BA84202D3B5F1FF3F7C
:1026480035D1002D35D0E38F9BB2ABB123689A68A2
:1026580012F0010FEDD0DA68A36B1A80A36B023376
:10266800A363B4F83EC01FFA8CFC0CF1FF3C1FFAC0
:102678008CFCA4F83EC0E6E73A4629462046FFF718
:10268800E1FC08B120236365636D13B9002600E0FF
:102698000226012384F85130002384F85030304654
:1026A80003B0BDE8F0830326F3E70326F1E703262A
:1026B800EFE70326EDE70226F1E7000038B5044608
:1026C8000268136923F44053C1680B43136183689C
:1026D8000269134342691343C2691A430168CB680C
:1026E80023F4164323F00C031343CB6002685369A9
:1026F80023F4407381690B4353610368264A93426C
:1027080006D002F58062934202D0FFF781FA01E019
:10271800FFF794FAE369B3F5004F1DD000EB800290
:1027280002EB820260688000B2FBF0F21B48A0FB5B
:1027380002314909642303FB11231B013233A0FB37
:1027480003235B0903F0F00202EB011203F00F030D
:10275800216813448B6038BD00EB800000EB8000DB
:1027680063685B00B0FBF3F00C4DA5FB0032510928
:10277800642303FB1103DB003233A5FB03235B094E
:102788005A0002F4F87202EB011203F00703216801
:1027980013448B60DFE700BF001001401F85EB5139
:1027A8002DE9F84305460F4616469946DDF8208080
:1027B8002C68246837EA04030CBF4FF0010C4FF073
:1027C800000CB4451FD1B8F1FF3FF1D0B8F1000FAC
:1027D80005D0FEF703FFA0EB09004045E8D92A68B9
:1027E800D36823F4D073D3602A68536923F00103B4
:1027F8005361202385F83D3085F83E30002385F865
:102808003C30032000E00020BDE8F88358B310B541
:10281800044690F83D300BB3242384F83D302268F9
:10282800D36823F40053D3602046FFF747FF22689C
:10283800136923F4904313612268536923F02A0330
:1028480053612268D36843F40053D36000202064A6
:10285800202384F83D3084F83E3010BD80F83C30A9
:10286800FEF706FDD8E7012070472DE9F04182B058
:102878001E4690F83D30DBB2202B54D104460D465D
:102888009046002953D0002A53D090F83C30012BB1
:1028980051D0012380F83C3000230364212380F8C1
:1028A8003D30FEF79BFE0746A4F82480A4F8268056
:1028B800A368B3F5805F05D04FF00008002384F8C3
:1028C8003C3012E0236913B14FF00008F6E7A84640
:1028D8000025F3E738F8023B2268C3F30803536086
:1028E800E28C92B2013A92B2E284E38C9BB273B169
:1028F80000963B46002280212046FFF751FFE0B9B1
:10290800002DE7D015F8012B23685A60E8E70096F8
:102918003B46002240212046FFF742FF78B920239A
:1029280084F83D3000E0022002B0BDE8F0810120CB
:10293800FAE70120F8E70220F6E70320F4E703208E
:10294800F2E7704708B538B10122074B1988074BE1
:102958001868FFF7EBFA08BD0022034B1988034BF0
:102968001868FFF7E3FAF6E7D8030020DC03002035
:1029780008B538B10122074B1988074B1868FFF7CB
:10298800D5FA08BD0022034B1988034B1868FFF7D6
:10299800CDFAF6E7D6030020DC03002010B582B09C
:1029A80004460020FFF7CEFF04F01F048DF8044012
:1029B8000A4C6423012201A92046FFF7C6FB6423C1
:1029C80001220DF105012046FFF7B7FD9DF80540EE
:1029D8000120FFF7B7FF204602B010BDE00300203A
:1029E80070B582B004460D4616460020FFF7AAFFD0
:1029F80004F01F048DF80440084C6423012201A947
:102A08002046FFF7A2FB6423324629462046FFF7FB
:102A180094FD0120FFF796FF02B070BDE00300208F
:102A280030B583B004460D460020FFF78BFF44F015
:102A380020048DF804408DF805506423022201A972
:102A48000348FFF782FB0120FFF77CFF03B030BD8E
:102A5800E003002070B582B004460D4616460020FB
:102A6800FFF770FF44F020048DF80440084C6423FD
:102A7800012201A92046FFF768FB64233246294654
:102A88002046FFF762FB0120FFF75CFF02B070BD34
:102A9800E003002008B5FF21E120FFF7C1FF08BDD2
:102AA80008B5FF21E220FFF7BBFF08BD08B50720E6
:102AB800FFF774FF08BD000008B50020FFF76EFFA0
:102AC80040F00301C9B20020FFF7AAFF094B1A68BA
:102AD8005B68134307D1FFF7DDFFFFF7E1FF012034
:102AE800FFF746FF08BD052202490A20FFF7B2FF9B
:102AF800F1E700BF8004002010B582B0CDE90023C3
:102B0800044620B9144BDDE90001C3E90001062C95
:102B180019D8012C19D901226946104B185DFFF705
:102B280099FF0F4B19780F4B185DFFF779FF0220BB
:102B3800FFF734FF41B2012000FA04F42143C9B27F
:102B48000220FFF76DFF02B010BD05226946034B56
:102B5800185DFFF77FFFE4E780040020F8690008AC
:102B68007C040020006A000808B501F00F0141EA62
:102B78000011C9B20420FFF753FF08BD08B501468C
:102B88007F2828BF7F210520FFF74AFF08BD0000E6
:102B9800202828BF2020014B187070477C04002093
:102BA800014B1878704700BF7C04002070B582B0D4
:102BB80006460D46FFF7F4FF0446A84200D92C4606
:102BC8000020FFF7BFFE61238DF80730094D64230D
:102BD80001220DF107012846FFF7B7FA6423A2B2D4
:102BE80031462846FFF7A9FC0120FFF7ABFE02B0EB
:102BF80070BD00BFE003002008B56020FFF7CEFEDF
:102C080008BD10B5FFF7D2FF1720FFF7C7FE00F089
:102C18000104FFF745FFFFF7EFFF204610BD000056
:102C280008B51D20FFF7BAFE00F0FB011D20FFF7D5
:102C3800F7FE00211C20FFF7F3FE024B00221A705A
:102C480008BD00BFD403002008B520B13F210120F2
:102C5800FFF7E6FE08BD00210120FFF7E1FEF9E7D6
:102C680010B504460620FFF799FE00F0F901032C81
:102C780009D0022C0DD0012C0ED034B1042C04D173
:102C880041F0060101E041F006010620FFF7C8FE09
:102C980010BD41F00401F8E741F00201F5E700003A
:102CA80038B505460620FFF779FE124B00221A7048
:102CB80000F0D704022D11D0012D13D00D4B0022A6
:102CC8001A7021460620FFF7ABFE0620FFF766FEC6
:102CD800A0420DD00020074B187038BD1A7044F080
:102CE8002004EEE7034B01221A7044F00804E8E7D9
:102CF8000120F2E78804002010B504460020FFF701
:102D08004DFE00F0F3011CB1012C05D041F00C017F
:102D18000020FFF785FE10BD41F00801F8E708B56F
:102D28000020FFF73BFE00F0FD010020FFF778FED2
:102D380008BD70B50546FFF7B9FE00F04003002B4B
:102D480014BF012600260BD0044615B1C0F3420378
:102D58002B7040210720FFF763FE14F0200F01D1EC
:102D6800304670BD20210720FFF75AFEF8E708B566
:102D78000020FFF7DEFF08BD70B504460D46202A87
:102D880028BF202216460020FFF7DCFD04F00700CC
:102D98003246294640F0A800FFF75CFE0120FFF705
:102DA800D1FD70BD08B570210720FFF739FE08BDB9
:102DB80000B583B00020FFF7C5FD50238DF804301F
:102DC80073238DF805306423022201A90448FFF714
:102DD800BCF90120FFF7B6FD03B05DF804FB00BFA6
:102DE800E003002008B51D20FFF7D8FD40F00601DC
:102DF800C9B21D20FFF714FE1D20FFF7CFFD48B113
:102E08001C20FFF7CBFD40F00301C9B21C20FFF7DF
:102E180007FE08BDFFF7CCFF1D20FFF7BFFD40F000
:102E28000601C9B21D20FFF7FBFDE9E708B51D2023
:102E3800FFF7B4FD40F00401C9B21D20FFF7F0FD13
:102E48001D20FFF7ABFD60B11C20FFF7A7FD40F088
:102E58003F01C9B21C20FFF7E3FD084B01221A709D
:102E680008BDFFF7A5FF1D20FFF798FD40F00401FE
:102E7800C9B21D20FFF7D4FDE6E700BFD403002048
:102E880070B5A0B00DF11C0CC44C0FCCACE80F0011
:102E98000FCCACE80F000FCCACE80F0023682CF87F
:102EA800023B1B0C8CF8003007A8FDF789F90A23B0
:102EB80082B207A9BA48FFF7D8FC0020FFF76EFDD9
:102EC80010F0080F00F0678210F0040F00F057822E
:102ED80007ACB44D0FCD0FC495E8070084E8070090
:102EE80007A8FDF76DF9AE4C0A2382B207A9204660
:102EF800FFF7BBFC0120FFF751FDC0F3401303931C
:102F0800C0F300130293C0F3C0030193C0F380031E
:102F18000093C0F3400300F00102A34907A801F0A1
:102F280089F807A8FDF74CF90A2382B207A92046B9
:102F3800FFF79BFC0220FFF731FDC0F3401303931A
:102F4800C0F300130293C0F3C0030193C0F38003DE
:102F58000093C0F3400300F00102944907A801F070
:102F680069F807A8FDF72CF90A2382B207A92046B9
:102F7800FFF77BFC0320FFF711FD00F0030202328C
:102F88008B4907A801F056F807A8FDF719F90A2395
:102F980082B207A92046FFF768FC0520FFF7FEFC70
:102FA80000F07F02834907A801F044F807A8FDF75D
:102FB80007F90A2382B207A92046FFF756FC062024
:102FC800FFF7ECFC044610F0080F00F0EB810DF160
:102FD8001C0C794D0FCDACE80F0095E803004CF8B8
:102FE800040B2CF8021B090C8CF8001007A8FDF73D
:102FF800E7F80A2382B207A96948FFF736FCC4F349
:10300800410314F0060F00F0DD81012B00F0E1818F
:10301800022B00F0E581032B00F0EC8107A8FDF7F7
:10302800CFF85F4C0A2382B207A92046FFF71DFCA0
:10303800052205A90A20FFF7D3FC9DF816309DF854
:1030480015209DF814100291019200939DF81730F5
:103058009DF81820594907A800F0ECFF07A8FDF7CC
:10306800AFF80A2382B207A92046FFF7FEFB052224
:1030780005A90B20FFF7B4FC9DF816309DF8152024
:103088009DF814100291019200939DF817309DF855
:1030980018204B4907A800F0CDFF07A8FDF790F8C6
:1030A8000A2382B207A92046FFF7DFFB012205A900
:1030B8000C20FFF795FC9DF81420424907A800F062
:1030C800B9FF07A8FDF77CF80A2382B207A92046B2
:1030D800FFF7CBFB012205A90D20FFF781FC9DF826
:1030E8001420394907A800F0A5FF07A8FDF768F8DC
:1030F8000A2382B207A92046FFF7B7FB012205A9D8
:103108000E20FFF76DFC9DF81420304907A800F049
:1031180091FF07A8FDF754F80A2382B207A92046B1
:10312800FFF7A3FB012205A90F20FFF759FC9DF823
:103138001420274907A800F07DFF07A8FDF740F8ED
:103148000A2382B207A92046FFF78FFB052205A9AB
:103158001020FFF745FC9DF816309DF815209DF8C6
:1031680014100291019200939DF817309DF81820D1
:10317800184907A800F05EFF07A8FDF721F80A2301
:1031880082B207A92046FFF770FB1120FFF706FC63
:1031980000F03F02104907A820E000BFB065000812
:1031A80038040020E46500083066000874660008EA
:1031B800C0660008DC660008F06600087067000852
:1031C800A0670008D0670008F867000820680008B2
:1031D80048680008706800089C68000800F02AFF2A
:1031E80007A8FCF7EDFF0A2382B207A92046FFF7DC
:1031F8003CFB1220FFF7D2FB00F03F028D4907A8E5
:1032080000F018FF07A8FCF7DBFF0A2382B207A922
:103218002046FFF72AFB1320FFF7C0FB00F03F0210
:10322800854907A800F006FF07A8FCF7C9FF0A238D
:1032380082B207A92046FFF718FB1420FFF7AEFB60
:1032480000F03F027D4907A800F0F4FE07A8FCF74C
:10325800B7FF0A2382B207A92046FFF706FB15200D
:10326800FFF79CFB00F03F02754907A800F0E2FE5B
:1032780007A8FCF7A5FF0A2382B207A92046FFF793
:10328800F4FA1620FFF78AFB00F03F026D4907A801
:1032980000F0D0FE07A8FCF793FF0A2382B207A923
:1032A8002046FFF7E2FA1C20FFF778FBC0F3401333
:1032B8000393C0F300130293C0F3C0030193C0F358
:1032C80080030093C0F3400300F001025E4907A8A1
:1032D80000F0B0FE07A8FCF773FF0A2382B207A923
:1032E8002046FFF7C2FA1D20FFF758FB054610F0ED
:1032F800040F00F0868007AC544E0FCE0FC496E83A
:10330800030044F8040B218007A8FCF759FF0A239F
:1033180082B207A94E48FFF7A8FA15F0020F7DD030
:1033280007AC4C4D0FCD0FC495E8070003C42280AD
:1033380007A8FCF745FF464D0A2382B207A928468D
:10334800FFF793FA0DF11C0C434C0FCCACE80F00BF
:103358000FCCACE80F000FCCACE80F0023682CF8BA
:10336800023B1B0C8CF8003007A8FCF729FF0A2346
:1033780082B207A92846FFF778FA20B070BD07ACDB
:10338800364D0FCD0FC495E8070003C424F8022B6F
:10339800120C2270A4E507AC314D0FCD0FC42B6879
:1033A80023609DE50DF11C0C2E4D0FCDACE80F00F0
:1033B80095E803004CF8040B2CF8021B090C8CF858
:1033C800001013E607AC284D0FCD0FC42B682360FF
:1033D80024E607AC254D0FCD0FC42B6823601DE6EE
:1033E80007AC234D0FCD0FC42B6824F8023B1B0CF0
:1033F800237013E607AC1F4D0FCD0FC42B68238035
:103408000CE607AC1C4E0FCE0FC496E8030044F838
:10341800040B24F8021B090C217075E707AC174D43
:103428000FCD0FC495E8070003C424F8022B120C33
:1034380022707DE7B8680008D4680008F0680008C2
:103448000C690008286900084469000890690008A8
:1034580038040020C0690008B0650008006600084C
:103468001C66000808670008206700083467000821
:10347800486700085C670008A8690008DC6900085C
:1034880082B070B582B006460D46144606A941F8CA
:10349800043F58225F4800F025F95F4B1E605F4BE0
:1034A8001D805F4B1C800120FFF74CFA0020FFF7BE
:1034B8005FFA0520FEF798F808210020FFF7B0FA18
:1034C8003F210120FFF7ACFA03210220FFF7A8FAF9
:1034D80003210846FFF7A4FA03210420FFF7A0FA06
:1034E80002210520FFF79CFA0F210620FFF798FA22
:1034F8000E210720FFF794FA00210820FFF790FA21
:1035080000210920FFF78CFAE7248DF804408DF894
:1035180003408DF802408DF801408DF800400522E7
:1035280069460A20FFF796FAC2238DF804308DF811
:1035380003308DF802308DF801308DF80030052207
:1035480069460B20FFF786FAC3210C20FFF768FABB
:10355800C4210D20FFF764FAC5210E20FFF760FA99
:10356800C6210F20FFF75CFA8DF804408DF8034060
:103578008DF802408DF801408DF80040052269461B
:103588001020FFF767FA00211120FFF749FA002100
:103598001220FFF745FA00211320FFF741FA002116
:1035A8001420FFF73DFA00211520FFF739FA002112
:1035B8001620FFF735FAFFF7FBFB00211C20FFF769
:1035C8002FFA00211D20FFF72BFAFFF759FC0F21D6
:1035D8000846FFF7C9FA0320FFF742FB0120FFF76F
:1035E8005FFB0220FFF788FBFFF71AFB2020FFF79D
:1035F800CFFAFFF7D7FB4C20FFF7C0FAFFF74AFADC
:10360800FFF74EFAFFF78BFB02B0BDE8704002B03F
:10361800704700BFE0030020DC030020D80300202F
:10362800D603002084B008B50DF1080C8CE80F0013
:1036380044226146034800F055F8BDE8084004B04C
:10364800704700BF38040020DFF834D00D480E4919
:103658000E4A002302E0D458C4500433C4188C42E4
:10366800F9D30B4A0B4C002301E013600432A24249
:10367800FBD3FFF766F900F011F8FDF7E3FC70479C
:103688000040012000000020040200203C6E0008D9
:10369800080200209C040020FEE7000070B5002608
:1036A8000C4D0D4C641BA410A64209D102F05EFF1C
:1036B80000260A4D0A4C641BA410A64205D170BD11
:1036C80055F8043B98470136EEE755F8043B984710
:1036D8000136F2E7346E0008346E0008346E0008D4
:1036E800386E00080A44914200F1FF3300D1704758
:1036F80010B511F8014B914203F8014FF9D110BDF3
:10370800884210B501EB020402D98442234607D847
:10371800431EA14208D011F8012B03F8012FF8E746
:10372800014602448A4200D110BD13F8014D02F847
:10373800014DF7E703460244934200D1704703F86E
:10374800011BF9E7002B2DE9F0471F46BBBF03F12A
:1037580000431F4600232D2388B01446129A109D5B
:103768001370149BDDF84CA023F02008B8F1460F25
:1037780005D0B8F1450F00D10135022300E003233D
:1037880007AA049206AACDE902A2CDE9003522468D
:103798003B4600F0FDFCB8F1470F064602D1119BED
:1037A800DB0722D5B8F1460F06EB050910D13378AF
:1037B800302B0AD10022002320463946FDF72CF988
:1037C80018B9C5F10105CAF80050DAF80030994473
:1037D8000022002320463946FDF71EF908B1CDF82E
:1037E8001C903022079B4B4507D33046079B159A00
:1037F8009B1B136008B0BDE8F087591C07911A702D
:10380800F0E70346F7B5002903F8022BB6BF2D22CF
:103818002B224942092942702BDD0DF10704A446E9
:103828000A2791FBF7F60A46A64607FB1615632AF0
:1038380005F13005314604F1FF340EF8015CF0DC87
:103848003031AEF1020504F8011C2946441C6145DB
:103858000AD30DF10902A2EB0E02654588BF0022CA
:103868001344181A03B0F0BD11F8012B04F8012F06
:10387800EDE7302330318370C170031DF1E700009C
:103888002DE9F04F91B00C46DDF8688016461F46CA
:10389800054601F061FB036818460993FCF790FCA4
:1038A80000230E93D8F800300A90073323F007035B
:1038B80003F1080294F81890D4F800B0C8F8002072
:1038C800D3E90023C4E91223D4E9128A2AF0004379
:1038D8000B934FF0FF3240469C4B0B99FDF7CEF807
:1038E80070BB4FF0FF324046984B0B99FDF7A8F894
:1038F80030BB0022002340465146FDF797F810B12F
:103908002D2384F84330924B9248B9F1470F94BF66
:103918009846804603234FF0000A23612BF00403E6
:10392800236033462146284600970FAA00F0D4F9B1
:10393800013040F090804FF0FF3011B0BDE8F08FBB
:103948004246534640465146FDF798F848B1BAF109
:10395800000FB8BF2D238048B8BF84F843307F4B91
:10396800D3E7636809F0DF015A1C42D1062363607C
:10397800002206920EAACDE904920DAA4BF48063A8
:1039880003920DF13302CDE90132236063684246A8
:103998000093284653460B91FFF7D4FE0B998046B7
:1039A80047290D9908D1C81C02DB6368994240DD9C
:1039B800A9F102095FFA89F9B9F1650F1FD84A46DA
:1039C800013904F150000D91FFF71BFF0E9A824652
:1039D8001318012A236102DC2268D20701D50133BA
:1039E80023619DF83330002B9BD02D2384F843307E
:1039F80097E74729BCD1002BBAD10123B7E7B9F122
:103A0800660F18D1002963680BDD216113B922689C
:103A1800D00702D501330B4423614FF0000AA1659A
:103A2800DFE713B92268D20701D50233F4E701238F
:103A3800F2E74FF067090E9B994205DB2368216185
:103A4800D807EAD54B1CE7E70029CCBF0122C1F112
:103A580002021344E0E723685A0507D42369424663
:103A680031462846B84701302BD164E7B9F1650FD4
:103A780040F2DD80D4E9120100220023FCF7CCFFDC
:103A8800002833D0012331462846354AB84701304B
:103A98003FF451AFDDE90D239A4202DB2368D807D2
:103AA8000FD5DDE9092331462846B84701303FF4F0
:103AB80042AF4FF0000804F11A090E9B013B434541
:103AC80009DC23689B0700F10281E0680F9B98429C
:103AD800B8BF184631E701234A4631462846B84759
:103AE80001303FF428AF08F10108E6E70D9B002BF1
:103AF80038DC012331462846194AB84701303FF4DB
:103B08001AAFDDE90D23134302D12368D907D8D5AD
:103B1800DDE9092331462846B84701303FF40BAFA9
:103B28004FF0000904F11A0A0D9B5B424B4501DC7A
:103B38000E9B94E70123524631462846B847013088
:103B48003FF4F9AE09F10109EEE700BFFFFFEF7F8F
:103B58000C6A0008106A0008186A0008146A00084D
:103B68001C6A00080E9AA36D9A42A8BF1A46002A3A
:103B7800914637DC4FF0000B29EAE97904F11A0283
:103B8800D4F858A0AAEB09035B4533DCDDE90D2323
:103B98009A423BDB2368DA0738D40E9B0D99A3EBD6
:103BA8000A02A3EB01099145A8BF9146B9F1000F9C
:103BB80034DC4FF0000829EAE97904F11A0ADDE952
:103BC8000D239B1AA3EB090343457FF77AAF012323
:103BD800524631462846B84701303FF4ACAE08F1AA
:103BE8000108ECE71346314642462846B8470130FB
:103BF800C0D1A0E60123314628460B92B8470130D0
:103C08003FF499AE0B9A0BF1010BB9E73146DDE9A8
:103C180009232846B8470130BFD18CE64B463146C8
:103C2800284608EB0A02B8470130C2D183E60E9A4B
:103C3800012A01DCDB0737D50123424631462846F5
:103C4800B84701303FF477AEDDE90923314628460D
:103C5800B84701303FF46FAED4E9120100220023C7
:103C6800FCF7DAFED8B90E9B08F10102013B314698
:103C78002846B84701300ED15DE601234A46314651
:103C88002846B84701303FF456AE08F101080E9BAC
:103C9800013B4345F1DC534604F15002E0E64FF0A6
:103CA800000804F11A09F2E701234246DFE701237D
:103CB8004A4631462846B84701303FF43CAE08F141
:103CC8000108E3680F995B1A4345F0DCFDE64FF005
:103CD800000804F11909F4E72DE9F047164699465A
:103CE8008A680B6907469342B8BF1346336091F858
:103CF80043200C46DDF820800AB101333360236885
:103D0800990642BF336802333360256815F006050B
:103D180006D104F1190AE36832689B1AAB4228DC21
:103D280094F84320131E226818BF012392062DD44D
:103D38004946384604F14302C047013020D0236881
:103D4800E56803F00603042B18BF002532684FF01E
:103D58000006A36808BFAD1A226908BF25EAE57501
:103D68009342C4BF9B1AED181A34B5421AD10020E9
:103D780008E00123524649463846C047013003D17E
:103D88004FF0FF30BDE8F0870135C4E73020E11877
:103D980081F843005A1C94F845102244023382F8F3
:103DA8004310C5E70123224649463846C04701303B
:103DB800E6D00136D9E700002DE9FF470F7E91468E
:103DC800782F80460C469A460C9D01F1430207D88D
:103DD800622F0AD8002F00F0D980582F00F0A48055
:103DE80004F1420584F842703AE0A7F16303152B09
:103DF800F6D801A151F823F0593E00086D3E00089D
:103E0800E93D0008E93D0008E93D0008E93D0008F2
:103E18006D3E0008E93D0008E93D0008E93D00085D
:103E2800E93D00087B3F00089D3E00085D3F000813
:103E3800E93D0008E93D00089D3F0008E93D00080C
:103E48009D3E0008E93D0008E93D0008653F00087F
:103E58002B681A1D1B682A6004F1420584F8423059
:103E68000123A4E020682968060601F104030AD5A5
:103E78000E682B60002E03DA2D23764284F8433037
:103E88000A235E4819E00E6810F0400F2B6018BF37
:103E980036B2EFE72B682068191D2960010601D5A5
:103EA8001E6802E04606FBD51E886F2F0CBF08234C
:103EB8000A235248002184F843106568002DA8BFE2
:103EC8002168A560A4BF21F0040121600EB9002D6E
:103ED8004DD01546B6FBF3F103FB1167C75D05F836
:103EE800017D3746BB420E46F4D9082B0BD1236817
:103EF800DE0708D5236961689942DEBF302305F8DB
:103F0800013C05F1FF35521B22614B4621464046D4
:103F1800CDF800A003AAFFF7DFFE01304CD14FF027
:103F2800FF3004B0BDE8F087344881F8457029684F
:103F3800236851F8046B29601D0614D5DF0744BFB8
:103F480043F0200323601EB9236823F02003236075
:103F58001023AFE7236843F0200323607823284821
:103F680084F84530E3E7590648BFB6B2E6E7154698
:103F7800BBE72B682668181D6169286035061B6831
:103F880001D5196002E07006FBD51980002315469B
:103F98002361BAE72B6800211A1D2A601D68626830
:103FA800284600F0E9FF08B1401B606063682361A0
:103FB800002384F84330A8E72A4649464046236947
:103FC800D0470130ABD023689B0713D4E068039B2C
:103FD8009842B8BF1846A4E70123324649464046EE
:103FE800D04701309BD00135E36803995B1AAB4297
:103FF800F2DCEBE7002504F11906F5E71E6A000874
:104008002F6A00080FB40A4B13B51C6824B1A369C2
:1040180013B9204600F002FF05AB2046049AA168B8
:10402800019301F0ADFD02B0BDE8104004B0704747
:10403800340000200EB46FF0004100B59CB01DABF9
:1040480002900690079104910848094953F8042BF7
:104058000591006802A9019301F06AFC0022029B05
:104068001A701CB05DF804EB03B0704734000020F0
:104078000802FFFF2DE9F74F03690C690746A342C1
:10408800C0F28280013C00F1140501F1140805EB2F
:104098008403019358F8243055F8242001339A42B8
:1040A800B2FBF3F64FEA840B08EB840931D34FF0E7
:1040B800000E4046AC46F24650F8042B93B206FB7D
:1040C80003E3120C4FEA134E9BB206FB02E2AAEB83
:1040D8000303DCF800A04FEA124E1FFA8AFA534491
:1040E800DCF800A092B2C2EB1A4202EB23429BB268
:1040F80043EA024381454FEA224A4CF8043BDBD2AB
:1041080055F80B302BB9019B043B9D421A462FD31F
:104118003C61384601F0BCF9002825DB28464FF001
:10412800000C013658F8041BD0F800E08BB2ACEB59
:1041380003031FFA8EF213440A0CC2EB1E4202EB71
:1041480023429BB243EA0243C1454FEA224C40F85E
:10415800043BE7D255F8242005EB840322B9043B3D
:104168009D421A460AD33C61304603B0BDE8F08F41
:104178001268043B002ACBD1013CC6E71268043B15
:10418800002AF0D1013CEBE70020EEE70000000038
:104198002DE9F04F16461F46446A99B00546CDE909
:1041A8000467DDF8948074B9102000F0DDFE024643
:1041B800686220B9EA21A84BA84801F037FFC0E996
:1041C80001440460C4606B6A196851B15A680123DC
:1041D80093404A608B60284600F01CFF00226B6AFF
:1041E8001A603B1EAFBF0023012223F00043059352
:1041F800A8BFC8F80030DDF81490994BB8BFC8F8CC
:10420800002033EA090319D142F20F73249A13608C
:10421800C9F31303334300F07F85269B53B9914BB1
:1042280022E0914B03930833269A1360039819B040
:10423800BDE8F08F8B4B03930333F5E7DDE90434D6
:10424800CDE90C34DDE90C0100220023FCF7E4FB86
:10425800804658B10123249A1360269B002B00F056
:10426800588582481860431E0393DFE716AB019315
:1042780017AB00932846DDE90C2301F0B1F9C9F327
:104288000A548346002C7FD0DDE90C010D9BA4F273
:10429800FF34C3F3130343F07F5141F44011CDF8C9
:1042A8004C800022724BFBF797FF65A3D3E90023EC
:1042B800FCF74AF964A3D3E90023FBF78FFF06460E
:1042C80020460F46FCF7D6F861A3D3E90023FCF794
:1042D8003BF902460B4630463946FBF77FFF064658
:1042E8000F46FCF7E1FB00228246002330463946A0
:1042F800FCF79CFB48B15046FCF7BCF832463B46FD
:10430800FCF78AFB08B90AF1FF3ABAF1160F58D838
:10431800DDE90C01574B03EBCA03D3E90023FCF793
:1043280085FB00284FD000230AF1FF3A0F93169B14
:104338001C1B631E099349BFC4F1010300230693A4
:10434800002354BF06930993BAF1000F3DDB099B84
:10435800CDF838A05344099300230A93229B092BD4
:1043680000F28C80052BC4BF043B2293229BC8BF5C
:104378000024A3F10203D8BF0124032B00F28A8092
:10438800DFE803F02D4F4D5BDDE916431C4404F2D2
:104398003243202BC3BFC3F1400304F2124009FA91
:1043A80003F3C3F12003C6BF26FA00F0184306FA48
:1043B80003F0FCF74FF80123A1F1F871013C1393C6
:1043C8006FE70123B2E70F90B1E7069BA3EB0A035F
:1043D8000693CAF100030A9300230E93BEE7002355
:1043E8000B93239B002B58DC4FF001094B46CDF86B
:1043F8002090CDF88C900022686A4260042202F175
:1044080014069E4241684ED9284600F0C3FD039029
:1044180000284CD102464FF4D571174BCCE6012346
:10442800DEE700230B93239B0AEB030909F1010341
:10443800012B0893B8BF0123DDE70123F2E700BF92
:1044480061436F63A787D23FB3C8608B288AC63F92
:10445800FB799F501344D33F4D6A0008646A0008F3
:104468000000F07F496A0008406A00081D6A0008D9
:104478000000F83F006C0008E26A000801240023ED
:104488000B9422934FF0FF3900221223CDF820908D
:104498002392B0E701230B93F4E7DDF88C904B46A9
:1044A800CDF82090A7E7013141605200A7E76B6A79
:1044B800039A1A60089B0E2B00F2A880002C00F0CB
:1044C800A580BAF1000F34DD9A4A0AF00F0302EB17
:1044D800C3031AF4807FD3E90034CDE910344FEADE
:1044E8002A1416D0DDE90C01934B0327D3E90823DE
:1044F800FCF754F9CDE9040104F00F048E4E54B9C9
:10450800DDE91023DDE90401FCF748F9CDE90401F0
:1045180029E00227F2E7E10708D5DDE91001D6E92D
:104528000023FCF711F8CDE91001013764100836B3
:10453800E5E700F0A580DDE90C01CAF100047D4B38
:1045480004F00F0203EBC203D3E90023FBF7FCFFDF
:1045580002270023CDE90401774E2411002C40F0F6
:104568008480002BD2D10F9B002B00F08B80DDE9DB
:104578000434CDE91034DDE9100100226F4BFCF75B
:1045880055FA00287ED0089B002B7BD0B9F1000F8C
:1045980038DDDDE910010022694BFBF7D5FF4C46F9
:1045A800CDE904010AF1FF3801373846FBF762FF0D
:1045B800DDE90423FBF7C8FF0022624BFBF70EFE80
:1045C800A1F15076CDE910011196002C5DD1DDE9FD
:1045D800040100225C4BFBF7FFFD02460B46CDE9C8
:1045E80004233346109AFCF73FFA002840F09C82D7
:1045F800DDE90401109A06F10043FCF717FA0028D8
:1046080040F09082DDE90C34CDE90434179B002B8F
:10461800C0F25281BAF10E0F00F34E81454B03EB05
:10462800CA03D3E90034CDE90634239B002B80F27A
:10463800DB80089B002B00F3D78040F07282DDE915
:1046480006010022404BFBF77FFFDDE90423FCF75E
:1046580001FA089C2646002840F048823123039F2F
:104668000AF1010A07F8013B44E2E20705D5D6E959
:104678000023FBF769FF01230137641008366DE753
:10468800022770E7D046089C8FE70399294B2144FD
:1046980012910B9903EBC403DDE9106753E9022378
:1046A800002955D000202949FCF778F83B463246C6
:1046B800FBF792FDCDE91001039FDDE90401FCF74A
:1046C800F3F90446FBF7D6FE02460B46DDE9040182
:1046D800FBF782FD02460B463034CDE90423DDE9C1
:1046E800102307F8014BFCF7A1F9002874D1DDE984
:1046F800042300201149FBF76FFDDDE91023FCF7C7
:1047080095F9002840F0B780129B9F423FF47AAF9A
:10471800DDE9100100220A4BFBF716FF0022CDE964
:104728001001DDE90401064BFBF70EFFCDE904019A
:10473800C3E700BF006C0008D86B00080000F03F1A
:104748000000244000001C40000014400000E03F2E
:1047580030463946FBF7F8FE129BCDE91001039C61
:104768001493DDE90401FCF79FF91590FBF782FE2D
:1047780002460B46DDE90401FBF72EFD159B0646B4
:10478800303304F8013B129B0F469C424FF0000265
:1047980024D1DDE91001B04BFBF720FD02460B46A2
:1047A80030463946FCF760F9002863D1DDE910236B
:1047B8000020A949FBF710FD02460B463046394652
:1047C800FCF734F900283FF41DAF149F7B1E1493A7
:1047D80017F8013C302BF8D0C2463BE09F4BFBF763
:1047E800B3FECDE90401BCE7039FDDE90489DDE9F7
:1047F800062340464946FBF7D1FFFCF755F9044626
:10480800FBF738FEDDE90623FBF79EFE02460B4662
:1048180040464946FBF7E0FC04F1300607F8016B17
:10482800039EDDF820C0BE1BB44502460B4636D1B8
:10483800FBF7D4FCDDE9062380468946FCF714F92A
:1048480058BBDDE9062340464946FCF7E5F808B1C0
:10485800E10722D42846594600F0DCFB00233B70D0
:10486800249B0AF101001860269B002B3FF4DEAC64
:104878001F60DBE427463B461F4613F8012D392A03
:1048880007D1039A9A42F7D13022039908F1010817
:104898000A701A7801321A709EE7D046EBE70022B8
:1048A8006E4BFBF751FE0022002380468946FCF739
:1048B800B3F800289BD0CDE70B9A002A00F0D080EF
:1048C800229A012A00F3AE80139A002A00F0A680EB
:1048D80003F233430A9C069F069A01211A44069262
:1048E800099A28461A44099200F04AFC0646002F05
:1048F8000CDD099B002B09DDBB42A8BF3B46069A8D
:10490800FF1AD21A0692099AD31A09930A9BF3B18D
:104918000B9B002B00F0A880002C10DD31462246AE
:10492800284600F0EBFC5A4601460646284600F0A9
:104938003DFC80465946284600F06CFBC3460A9B5E
:104948001A1B04D05946284600F0D8FC834601219A
:10495800284600F015FC0E9B0446002B40F3868089
:104968001A460146284600F0C9FC229B0446012B42
:104978007FDD4FF00008236904EB8303186900F01A
:10498800B1FBC0F12000099B184410F01F0000F093
:104998009280C0F12003042B40F38A80C0F11C00F0
:1049A800069B074403440693099B03440993069B0B
:1049B800002B05DD59461A46284600F0F9FC8346C7
:1049C800099B002B05DD21461A46284600F0F0FC1D
:1049D80004460F9B002B70D02146584600F058FD26
:1049E80000286ADA002359460A22284600F034FBD8
:1049F8000B9B83460AF1FF3A002B00F09481314665
:104A080000230A22284600F027FBB9F1000F0646CA
:104A180000F39380229B022B57DC8EE0169BC3F198
:104A2800360357E7089B5C1E0A9BA342B7BF0A9B45
:104A38001C1BE21A0E9BBEBF0A949B180E93089B80
:104A4800B8BF0024002BBBBF069B089A069F9F1A7D
:104A5800ACBF089B00233FE70000E03F0000244074
:104A68000A9C069F0B9E42E70A9A6BE7229B012B42
:104A780019DC049BBBB9059BC3F313039BB9059BC6
:104A880023F000431B0D1B0583B14FF00108069B63
:104A980001330693099B013309930E9B002B7FF486
:104AA8006AAF01206FE74FF00008F6E79846F4E791
:104AB8003FF47DAF18461C3072E7089B002B36DCAC
:104AC800229B022B33DDDDF82090B9F1000F0DD1C8
:104AD80021464B460522284600F0BEFA0146044608
:104AE800584600F0D5FC00283FF7B8AD239B039F3C
:104AF8006FEA030A4FF000082146284600F08AFAB8
:104B0800002E3FF4A7AEB8F1000F05D0B04503D092
:104B18004146284600F07EFA3146284600F07AFAE7
:104B280098E600242646E1E7C246264696E50B9B12
:104B3800DDF82090002B00F0FD80002F05DD3146C8
:104B48003A46284600F034FC0646B8F1000F5CD01F
:104B58002846716800F01EFA074628B9024640F256
:104B6800EA217F4BFFF728BB326906F10C010232BC
:104B780092000C30FEF7B6FD01223946284600F0B7
:104B880017FCB0460646039B01330893039B4B442E
:104B98000A93049B03F001030993089B2146013BF8
:104BA80058460493FFF766FA0346414630330690A9
:104BB80058460B9300F06CFC324681462146284645
:104BC80000F082FCC26807460B9B02BB01465846B0
:104BD80000F05EFC02460B9B39462846CDE90B32B5
:104BE80000F018FA229B0C9A089F43EA0201099BDD
:104BF8000B430B9B0DD1392B29D0B9F1000F01DDE7
:104C0800069B3133049A137076E73046B9E70122E0
:104C1800E2E7B9F1000F06DB229941EA090909998F
:104C280059EA010120D1002AECDD59460122284623
:104C3800089300F0BDFB2146834600F029FC0028BC
:104C4800089B02DCDED1DA07DCD5392BD8D1392331
:104C5800049A13703B461F4617F8012C013B392A6A
:104C680050D001321A7047E7002A03DD392BEED005
:104C78000133C7E7089A0A9902F8013C8A422AD008
:104C8800594600230A22284600F0E6F9B045834633
:104C98004FF000034FF00A024146284607D100F0C2
:104CA800DBF980460646089B0133089375E700F058
:104CB800D3F93146804600230A22284600F0CCF971
:104CC8000646F0E7B9F1000FCCBF4F4601274FF079
:104CD8000008039A1744594601222846089300F011
:104CE80067FB2146834600F0D3FB0028B2DC02D1E3
:104CF800089BDB07AED43B461F4613F8012D302A2C
:104D0800FAD0F9E6039A9A42A5D131230AF1010AA9
:104D180079E7144BFFF7A8BA269B002B7FF481AAEA
:104D2800114BFFF7A1BAB9F1000F03DC229B022B4C
:104D38003FF7CBAE039F21465846FFF79BF9039AEE
:104D480000F1300307F8013BBA1A9145BADD59461C
:104D580000230A22284600F07FF98346EBE700BFCC
:104D6800E26A00081C6A0008406A0008002310B5BF
:104D78000446C0E90033C0E9043383608181436697
:104D8800C2818361194608225C30FEF7D3FC054BCB
:104D980024626362044BA362044BE362044B236303
:104DA80010BD00BF095E00082B5E0008635E0008A6
:104DB800875E0008014900F0AFB800BF95610008A0
:104DC800682270B54D1E55430E4605F1740100F07A
:104DD800DFFC044640B10021C0E900160C30A06099
:104DE80005F16802FEF7A6FC204670BD014800F0F8
:104DF800B8B800BF8A040020014800F0B3B800BF6B
:104E08008A040020014800F0ACB800BF8B040020E1
:104E1800014800F0A7B800BF8B04002010B5044675
:104E2800FFF7F0FFA3691BB1BDE81040FFF7F0BF23
:104E3800C4E912332365134B134A1B68A262A342C9
:104E480008BF0123204608BFA36100F01FF8606077
:104E5800204600F01BF8A060204600F017F800225A
:104E68000421E0606068FFF781FF01220921A06842
:104E7800FFF77CFF02221221E068FFF777FF01238A
:104E8800A361D1E7086A0008BD4D0008F8B50746D8
:104E9800FFF7ACFF1E4B1E68B36913B93046FFF726
:104EA800BDFF4836D6E90134013B03D533680BB35F
:104EB8003668F7E7B4F90C50D5B9164B04F1580029
:104EC800E360656600F04CF8FFF796FF0822294674
:104ED800C4E90155C4E904552560A56104F15C00E5
:104EE800FEF728FCC4E90D55C4E912552046F8BD63
:104EF8006834D9E704213846FFF762FF044630607A
:104F08000028D5D1FFF778FF0C233B60EEE700BF00
:104F1800086A00080100FFFF2DE9F84306468846A5
:104F2800002700F14804D4E90195B9F1010905D534
:104F38002468002CF7D13846BDE8F883AB89012BEB
:104F480007D9B5F90E30013303D029463046C0479A
:104F580007436835E9E700000048704788010020EA
:104F68007047704770470000024B0146186800F010
:104F78000FBC00BF34000020034610B5C9B202447C
:104F88009342184601D1002003E0047801338C4293
:104F9800F6D110BD70B5466A04460D4676B91020A4
:104FA800FFF7E2FF0246606220B96621174B1848F6
:104FB80001F03CF8C0E901660660C660666AF368FD
:104FC80083B1636ADB6853F82500B8B9012101FA97
:104FD80005F6721D2046920000F05EFB60B1C0E944
:104FE80001560EE021220421204600F055FB636A99
:104FF800F060DB68002BE4D1002070BD026843F844
:1050080025200023C0E90333F7E700BF4D6A0008F5
:10501800546B000870B5466A05460C4676B91020F0
:10502800FFF7A2FF0246686220B98A21084B0948A7
:1050380000F0FCFFC0E901660660C6603CB16B6A1F
:105048006268DB6853F82210216043F8224070BD83
:105058004D6A0008546B00082DE9F04107460C46DC
:105068001E4600200D6901F1140CDCF800300130F7
:1050780099B202FB01611E0C0B0C02FB063389B2CC
:1050880001EB034185424FEA13464CF8041BECDC64
:105098000EB3A368AB4219DC616838460131FFF7EB
:1050A80079FF804628B90246B5210C4B0C4800F020
:1050B800BDFF226904F10C01023292000C30FEF7A8
:1050C80011FB21463846FFF7A5FF444604EB85034C
:1050D80001355E6125612046BDE8F081E26A00087D
:1050E800546B0008020C12040346CAB903041020CA
:1050F80013F07F4F04BF1B02083013F0704F04BF3A
:105108001B01043013F0404F04BF9B000230002BFA
:1051180005DB13F0804F00F1010008BF2020704725
:105128000020E5E70368024613F007000BD0D90713
:1051380021D4980749BF5B089B08012013605CBF16
:1051480002201360704799B209B910201B0CD9B21C
:1051580009B908301B0A190704BF1B09043099074D
:1051680004BF9B080230D90703D45B0800F1010093
:1051780003D013607047002070472020704700005C
:1051880010B50C460121FFF705FF024628B94FF478
:10519800A071044B044800F049FF012344610361F6
:1051A80010BD00BFE26A0008546B00082DE9F04FFB
:1051B80091460A69D9F810300C469A42BEBF0B4690
:1051C8004C4699462769D9F810A0A368616807EB8F
:1051D8000A06B34285B0B8BF0131FFF7DBFE30B92C
:1051E800024640F25D11434B434800F01FFF00F1B7
:1051F80014052B46002205EB8608434521D304F10C
:10520800140303EB870709F1140303EB8A020292E4
:105218003A1B153A22F00302043204F115018F42B9
:1052280038BF04220192029A03939A420CD8002EA6
:1052380003DD58F8043D002B59D0066105B0BDE8E0
:10524800F08F43F8042BD8E7B3F800A0BAF1000FA9
:1052580023D0A9464FF0000C04F1140E5EF8042B7D
:10526800D9F800101FFA82FB89B20AFB0B116144BE
:10527800D9F800C0120C4FEA1C4C0AFB02C202EB20
:10528800114289B241EA024177454FEA124C49F886
:10529800041BE3D8019A45F802C0039A0433B2F814
:1052A8000290B9F1000F20D0AE464FF0000A2968ED
:1052B80004F1140CBCF800B0BEF8022089B209FB56
:1052C8000B22924441EA0A414EF8041B5CF8042B75
:1052D800BEF80010120C09FB0211674501EB1A41D8
:1052E8004FEA114AE6D8019AA95004359BE7013ED6
:1052F8009DE700BFE26A0008546B00082DE9F843F7
:10530800154612F0030206460F4607D0254C013A0F
:10531800002354F82220FFF79FFE0746AD103DD02A
:10532800746A7CB91020FFF71FFE0246706228B924
:105338004FF4D7711C4B1D4800F078FEC0E90144BA
:105348000460C460D6F82480D8F808404CB940F20C
:1053580071213046FFF714FF00230446C8F80800FF
:1053680003604FF00009EB070AD53946224630465C
:10537800FFF71CFF804639463046FFF74BFE47468D
:105388006D100BD0206838B9224621463046FFF709
:105398000DFF2060C0F800900446E4E73846BDE8F9
:1053A800F88300BFC86C00084D6A0008546B0008F9
:1053B8002DE9F0470C46074691462369496803EBF7
:1053C8006218A3684FEA621A08F10106B3420BDBC0
:1053D8003846FFF7DFFD054648B9024640F2D911C5
:1053E800294B2A4800F022FE01315B00EEE700233A
:1053F80000F1140100F110021846534537DB20690B
:105408002AEAEA7A04F1140319F01F0901EB8A0168
:1054180003EB80002FD08A464FF0000CC9F1200E14
:105428001A6802FA09F242EA0C024AF8042B53F805
:10543800042B984222FA0EFCF2D8031B153B23F0EA
:105448000303043304F11502904238BF042341F8E2
:1054580003C0BCF1000F01D008F10206013E384636
:1054680021462E61FFF7D6FD2846BDE8F08742F8B1
:10547800040F0133C1E7043953F8042B984241F86B
:10548800042FF9D8EAE700BFE26A0008546B000865
:1054980003460A69006930B5801A0DD114331431F6
:1054A80003EB820401EB820154F8045D51F8042DEA
:1054B800954202D004D3012030BDA342F4D3FBE7C8
:1054C8004FF0FF30F8E700002DE9F84F0D4607468A
:1054D800114628461446FFF7DBFF061E11D1314658
:1054E8003846FFF757FD024628B940F232213A4BB9
:1054F8003A4800F09BFD0123C0E904361046BDE898
:10550800F88FA4BF23462C4638466168A6BF1D46BF
:1055180000260126FFF73EFD024618B94FF4107128
:105528002D4BE5E702F11408C2464FF0000C27693D
:10553800C6602E6904F1140005F1140900EB870E0A
:1055480009EB8606103454F804BF59F8043B1FFAD7
:105558008BF18C4499B21B0CACEB0101C3EB1B43E0
:1055680003EB214389B24FEA234C4E4541EA0343FA
:105578004AF8043BE7D8731B153B23F003031535A2
:105588000433AE4238BF0423184443441E4605463C
:1055980075450ED30EF10301091A21F003010338F2
:1055A800864538BF0021194451F8043D8BB1176175
:1055B800A4E755F8048B1FFA88F161440C1404EB36
:1055C800184489B241EA04414FEA244C46F8041BC6
:1055D800DEE7013FE8E700BFE26A0008546B000815
:1055E8002DE9F3410121DDE9087690461D46FFF7D4
:1055F800D1FC044630B9024640F20A31244B254812
:1056080000F014FDC5F31303C5F30A552DBB019330
:10561800B8F1000326D068460093FFF783FD009990
:10562800F0B1019AC0F1200302FA03F30B43C24020
:1056380063610192019B002B14BF02210121A36128
:105648002161C5B1A5F233450544C0F135003D607F
:105658003060204602B0BDE8F08143F48013D6E7FD
:105668006161E7E701A8FFF75DFD0121019B216169
:1056780063612030E5E704EB8103A0F23240386033
:105688001869FFF72FFDC0EB41113160E1E700BF5A
:10569800E26A0008546B000870B5A1FB025434B9E3
:1056A800294600F075F8064628B9304670BD0C2228
:1056B80000260260F9E72A462146FEF73BF8F4E7A0
:1056C80038B50546002940D051F8043C0C1F002B82
:1056D800B8BFE41800F032FE1C4A136833B963609F
:1056E80014602846BDE8384000F02EBEA34208D911
:1056F800206821188B4201BF19685B68091821606E
:10570800EDE71A465B680BB1A342FAD91168501845
:10571800A0420BD120680144501883421160E0D1A7
:1057280018685B68014411605360DAE702D90C23FA
:105738002B60D6E7206821188B4201BF19685B6887
:105748000918216063605460CBE738BD8C040020E1
:1057580070B50E4E0C463168054611B900F040FB95
:1057680030602146284600F03BFB431C0AD0C41C8D
:1057780024F00304A04207D0211A284600F030FB89
:10578800013001D14FF0FF34204670BD9004002055
:105798002DE9F041CD1C25F0030508350C2D38BF47
:1057A8000C25002D074601DBA94205D90C2300264C
:1057B8003B603046BDE8F0812E4E00F0BFFD3368F7
:1057C8001C4634BB29463846FFF7C2FF431C044633
:1057D8004DD134682646002E40D1236831463846DC
:1057E80004EB030800F0FCFA80453AD12168033540
:1057F8006D1A25F0030508350C2D38BF0C253846E1
:105808002946FFF7A5FF01302BD023682B442360DE
:105818000EE02268521B1ED40B2A16D96119A34226
:10582800256018BF5960636808BF316062514B60DA
:10583800384604F10B0600F087FD26F00706231D05
:10584800F21AB6D09B1BA350B3E76268A3420CBF01
:1058580032605A60ECE723466468B2E734467668FB
:10586800B9E70C2338463B6000F06EFDA1E72560E0
:10587800DEE700BF8C0400202DE9F0478E688246E1
:105888009E420C4690461F4638D88A8912F4906F7B
:1058980032D0256809690133A5EB010965694B44D4
:1058A80005EB450505EBD5756D109D4238BF1D46C6
:1058B800530531D52946FFF76BFF064650B90C232F
:1058C8004FF0FF30CAF80030A38943F04003A381AA
:1058D800BDE8F0874A462169FDF704FFA38923F450
:1058E800906343F08003A38126614E4426603E46C0
:1058F8006561A5EB0905A560BE4200D93E46324662
:1059080041462068FDF7FCFEA36800209B1BA360AE
:10591800236833442360DBE72A4600F01BFD064674
:105928000028E1D150462169FFF7CAFEC7E7000009
:105938002DE9F04F98468B8907461B060D461446FD
:105948009DB00ED50B6963B94021FFF721FF286090
:10595800286120B90C233B604FF0FF30D1E0402391
:105968006B610023099320238DF8293030234FF0F1
:105978000109CDF80C80DFF8A4818DF82A30234680
:105988009A4613F8012B0AB1252AF9D1BAEB040B70
:105998000BD05B46224629463846FFF76DFF01309B
:1059A80000F0AA80099A5A4409929AF80030002B0C
:1059B80000F0A28000234FF0FF32CDE905230AF161
:1059C800010A049307938DF853301A93544605221D
:1059D80014F8011B5148FFF7CFFA049AD8B9D0063A
:1059E80044BF20238DF85330110744BF2B238DF873
:1059F80053309AF800302A2B15D0544600204FF027
:105A08000A0C079A214611F8013B303B092B4ED965
:105A1800B0B1079214E0A0EB080309FA03F31343AB
:105A2800A2460493D2E7039B191D1B680391002B20
:105A3800BBBF5B4242F0020207930793B8BF0492D0
:105A480023782E2B0CD163782A2B35D1039B023473
:105A58001A1D1B680392002BB8BF4FF0FF33059344
:105A6800DFF8BCA0032250462178FFF785FA40B141
:105A78004023A0EB0A0003FA00F0049B013403431F
:105A8800049314F8011B062226488DF82810FFF706
:105A980073FA002838D0244B1BBB039B073323F031
:105AA800070308330393099B3344099367E70C46BC
:105AB80001200CFB0232A5E700234FF00A0C19461F
:105AC80001340593204610F8012B303A092A03D9EE
